:020000040800F2
:100000000000022089EF0008A12B0008AF2B000898
:10001000B52B0008BB2B0008C12B00080000000016
:10002000000000000000000000000000D9EF000800
:10003000C72B000800000000D9EF0008BD2A000807
:10004000D9EF0008D9EF0008D9EF0008D9EF000870
:10005000D9EF0008D9EF0008D9EF0008D9EF000860
:10006000D9EF0008D9EF0008D9EF0008D9EF000850
:10007000D9EF0008D9EF0008D9EF0008D9EF000840
:10008000D9EF0008D9EF0008D9EF0008D9EF000830
:10009000D9EF0008D9EF0008D9EF0008D9EF000820
:1000A000D9EF0008D9EF0008D9EF0008D9EF000810
:1000B00085320008A7320008D1320008D9EF0008C5
:1000C000D9EF0008D9EF0008D9EF0008D9EF0008F0
:1000D000D9EF0008D9EF0008D9EF0008D9EF0008E0
:1000E000D9EF0008D9EF0008D9EF0008D9EF0008D0
:1000F000D9EF0008D9EF0008D9EF0008D9EF0008C0
:10010000D9EF0008D9EF0008D3310008D9EF000873
:10011000D9EF0008D9EF0008D9EF00085B330008D9
:10012000D9EF0008D9EF0008D9EF0008D9EF00088F
:10013000D9EF00080000000000000000D9EF00081F
:10014000D9EF0008D9EF0008D9EF0008D9EF00086F
:10015000D9EF0008D9EF0008D9EF0008D9EF00085F
:10016000D9EF0008D9EF0008D9EF0008D9EF00084F
:10017000D9EF0008D9EF00080000000000000000DF
:08018000D9EF0008D9EF0008D7
:1001C00081F0004102E000BF83F0004330B54FEA08
:1001D00041044FEA430594EA050F08BF90EA020F75
:1001E0001FBF54EA000C55EA020C7FEA645C7FEA08
:1001F000655C00F0E2804FEA5454D4EB5555B8BF2B
:100200006D420CDD2C4480EA020281EA030382EA9B
:10021000000083EA010180EA020281EA0303362D2D
:1002200088BF30BD11F0004F4FEA01314FF4801C00
:100230004CEA113102D0404261EB410113F0004F12
:100240004FEA03334CEA133302D0524263EB4303C9
:1002500094EA050F00F0A780A4F10104D5F1200E67
:100260000DDB02FA0EFC22FA05F2801841F10001C2
:1002700003FA0EF2801843FA05F359410EE0A5F196
:1002800020050EF1200E012A03FA0EFC28BF4CF0C7
:10029000020C43FA05F3C01851EBE37101F000457D
:1002A00007D54FF0000EDCF1000C7EEB00006EEB8A
:1002B0000101B1F5801F1BD3B1F5001F0CD3490814
:1002C0005FEA30004FEA3C0C04F101044FEA44526B
:1002D00012F5800F80F09A80BCF1004F08BF5FEAF2
:1002E000500C50F1000041EB045141EA050130BDD2
:1002F0005FEA4C0C404141EB010111F4801FA4F175
:100300000104E9D191F0000F04BF01460020B1FAC9
:1003100081F308BF2033A3F10B03B3F120020CDA01
:100320000C3208DD02F1140CC2F10C0201FA0CF0DF
:1003300021FA02F10CE002F11402D8BFC2F1200C44
:1003400001FA02F120FA0CFCDCBF41EA0C019040FA
:10035000E41AA2BF01EB0451294330BD6FEA040443
:100360001F3C1CDA0C340EDC04F11404C4F120022E
:1003700020FA04F001FA02F340EA030021FA04F340
:1003800045EA030130BDC4F10C04C4F1200220FA97
:1003900002F001FA04F340EA0300294630BD21FAD5
:1003A00004F0294630BD94F0000F83F4801306BF9B
:1003B00081F480110134013D4EE77FEA645C18BF8F
:1003C0007FEA655C29D094EA050F08BF90EA020F26
:1003D00005D054EA000C04BF1946104630BD91EA1E
:1003E000030F1EBF0021002030BD5FEA545C05D121
:1003F0004000494128BF41F0004130BD14F5800460
:100400003CBF01F5801130BD01F0004545F0FE41D3
:1004100041F470014FF0000030BD7FEA645C1ABF08
:10042000194610467FEA655C1CBF0B46024650EA3F
:10043000013406BF52EA033591EA030F41F400216B
:1004400030BD00BF90F0000F04BF0021704730B5F1
:100450004FF4806404F132044FF000054FF00001C6
:1004600050E700BF90F0000F04BF0021704730B587
:100470004FF4806404F1320410F0004548BF40425C
:100480004FF000013EE700BF42004FEAE2014FEAB1
:1004900031014FEA02701FBF12F07F4393F07F4F8C
:1004A00081F06051704792F0000F14BF93F07F4FBE
:1004B000704730B54FF4607401F0004521F0004101
:1004C00020E700BF50EA010208BF704730B54FF087
:1004D00000050AE050EA010208BF704730B511F08C
:1004E000004502D5404261EB41014FF4806404F1C4
:1004F00032045FEA915C3FF4DCAE4FF003025FEA46
:10050000DC0C18BF03325FEADC0C18BF033202EBCD
:10051000DC02C2F1200300FA03FC20FA02F001FA27
:1005200003FE40EA0E0021FA02F11444C1E600BFC6
:1005300070B54FF0FF0C4CF4E06C1CEA11541DBF79
:100540001CEA135594EA0C0F95EA0C0F00F0DEF844
:100550002C4481EA030621EA4C5123EA4C5350EA29
:10056000013518BF52EA033541F4801143F480137A
:1005700038D0A0FB02CE4FF00005E1FB02E506F00B
:100580000042E0FB03E54FF00006E1FB03569CF060
:10059000000F18BF4EF0010EA4F1FF04B6F5007F66
:1005A00064F5407404D25FEA4E0E6D4146EB0606D8
:1005B00042EAC62141EA55514FEAC52040EA5E5061
:1005C0004FEACE2EB4F1FD0C88BFBCF5E06F1ED80B
:1005D000BEF1004F08BF5FEA500E50F1000041EB42
:1005E000045170BD06F0004646EA010140EA0200EF
:1005F00081EA0301B4EB5C04C2BFD4EB0C0541EA11
:10060000045170BD41F480114FF0000E013C00F325
:10061000AB8014F1360FDEBF002001F0004170BD49
:10062000C4F10004203C35DA0C341BDC04F1140462
:10063000C4F1200500FA05F320FA04F001FA05F2EE
:1006400040EA020001F0004221F0004110EBD370BB
:1006500021FA04F642EB06015EEA430E08BF20EAE7
:10066000D37070BDC4F10C04C4F1200500FA04F38A
:1006700020FA05F001FA04F240EA020001F000411C
:1006800010EBD37041F100015EEA430E08BF20EA8F
:10069000D37070BDC4F1200500FA05F24EEA020ED7
:1006A00020FA04F301FA05F243EA020321FA04F006
:1006B00001F0004121FA04F220EA020000EBD370BD
:1006C0005EEA430E08BF20EAD37070BD94F0000FBD
:1006D0000FD101F00046400041EB010111F4801FF1
:1006E00008BF013CF7D041EA060195F0000F18BFA2
:1006F000704703F00046520043EB030313F4801FDE
:1007000008BF013DF7D043EA0603704794EA0C0F97
:100710000CEA135518BF95EA0C0F0CD050EA4106AD
:1007200018BF52EA4306D1D181EA030101F000412A
:100730004FF0000070BD50EA410606BF1046194652
:1007400052EA430619D094EA0C0F02D150EA01365E
:1007500013D195EA0C0F05D152EA03361CBF10469F
:1007600019460AD181EA030101F0004141F0FE413E
:1007700041F470014FF0000070BD41F0FE4141F4C2
:10078000780170BD70B54FF0FF0C4CF4E06C1CEAC2
:1007900011541DBF1CEA135594EA0C0F95EA0C0F77
:1007A00000F0A7F8A4EB050481EA030E52EA033532
:1007B0004FEA013100F088804FEA03334FF0805553
:1007C00045EA131343EA12634FEA022245EA111580
:1007D00045EA10654FEA00260EF000419D4208BF31
:1007E000964244F1FD0404F5407402D25B084FEADE
:1007F0003202B61A65EB03055B084FEA32024FF48A
:1008000080104FF4002CB6EB020E75EB030E22BFE6
:10081000B61A754640EA0C005B084FEA3202B6EBA6
:10082000020E75EB030E22BFB61A754640EA5C0055
:100830005B084FEA3202B6EB020E75EB030E22BFE5
:10084000B61A754640EA9C005B084FEA3202B6EBE6
:10085000020E75EB030E22BFB61A754640EADC00A5
:1008600055EA060E18D04FEA051545EA16754FEA07
:1008700006164FEAC30343EA52734FEAC2025FEA25
:100880001C1CC0D111F4801F0BD141EA00014FF0B4
:1008900000004FF0004CB6E711F4801F04BF014385
:1008A0000020B4F1FD0C88BFBCF5E06F3FF6AFAEA1
:1008B000B5EB030C04BFB6EB020C5FEA500C50F131
:1008C000000041EB045170BD0EF0004E4EEA1131B4
:1008D00014EB5C04C2BFD4EB0C0541EA045170BDBB
:1008E00041F480114FF0000E013C90E645EA060EFF
:1008F0008DE60CEA135594EA0C0F08BF95EA0C0F2D
:100900003FF43BAF94EA0C0F0AD150EA01347FF474
:1009100034AF95EA0C0F7FF425AF104619462CE74B
:1009200095EA0C0F06D152EA03353FF4FDAE1046AE
:10093000194622E750EA410618BF52EA43067FF4FF
:10094000C5AE50EA41047FF40DAF52EA43057FF48F
:10095000EBAE12E74FF0FF3C06E000BF4FF0010C9A
:1009600002E000BF4FF0010C4DF804CD4FEA410CFE
:100970007FEA6C5C4FEA430C18BF7FEA6C5C1BD0CB
:1009800001B050EA410C0CBF52EA430C91EA030F4C
:1009900002BF90EA020F0020704710F1000F91EAA9
:1009A000030F58BF994208BF90422CBFD8176FEA77
:1009B000E37040F0010070474FEA410C7FEA6C5C45
:1009C00002D150EA013C07D14FEA430C7FEA6C5C4C
:1009D000D6D152EA033CD3D05DF8040B704700BF78
:1009E0008446104662468C461946634600E000BFC6
:1009F00001B5FFF7B7FF002848BF10F1000F01BD98
:100A00004DF808EDFFF7F4FF0CBF012000205DF862
:100A100008FB00BF4DF808EDFFF7EAFF34BF0120E7
:100A200000205DF808FB00BF4DF808EDFFF7E0FF80
:100A300094BF012000205DF808FB00BF4DF808EDD1
:100A4000FFF7CEFF94BF012000205DF808FB00BF38
:100A50004DF808EDFFF7C4FF34BF012000205DF81A
:100A600008FB00BF4FEA410C7FEA6C5C02D150EA00
:100A7000013C0AD14FEA430C7FEA6C5C02D152EA96
:100A8000033C02D14FF0000070474FF00100704767
:100A90004FEA410212F5001215D211D56FF47873A6
:100AA000B3EB625212D94FEAC12343F0004343EA49
:100AB000505311F0004F23FA02F018BF4042704724
:100AC0004FF00000704750EA013005D111F00040AE
:100AD00008BF6FF0004070474FF00000704700BF44
:100AE0004FEA4102B2F1E04324BFB3F5001CDCF150
:100AF000FE5C0DD901F0004C4FEAC0024CEA507088
:100B0000B2F1004F40EB830008BF20F001007047B6
:100B100011F0804F21D113F13872BCBF01F00040B9
:100B2000704741F480114FEA5252C2F11802C2F1EB
:100B3000200C10FA0CF320FA02F018BF40F001006C
:100B40004FEAC1234FEAD32303FA0CFC40EA0C001E
:100B500023FA02F34FEA4303CCE77FEA625307D15B
:100B600050EA01331EBF4FF0FE4040F44000704792
:100B700001F0004040F0FE4040F40000704700BF2C
:100B800053B94AB9002908BF00281CBF4FF0FF31F4
:100B90004FF0FF3000F0E2B8ADF1080C6DE904CE83
:100BA00012F0ECFFDDF804E0DDE9022304B0704749
:100BB00000F1340191E838009C46A6464CF8045DEB
:100BC00090E8FF0FE54600BD90EC210B704700BF99
:100BD00080EC210B704700BF90EC200B704700BFEA
:100BE00080EC200B704700BFD0EC200B704700BF9B
:100BF000C0EC200B704700BFF0EC0201F0EC0211DA
:100C0000F0EC0221F0EC0231F0EC0241F0EC025188
:100C1000F0EC0261F0EC0271F0EC0281F0EC029178
:100C2000F0EC02A1F0EC02B1F0EC02C1F0EC02D168
:100C3000F0EC02E1F0EC02F1704700BFE0EC0201E1
:100C4000E0EC0211E0EC0221E0EC0231E0EC0241C8
:100C5000E0EC0251E0EC0261E0EC0271E0EC0281B8
:100C6000E0EC0291E0EC02A1E0EC02B1E0EC02C1A8
:100C7000E0EC02D1E0EC02E1E0EC02F1704700BFF1
:100C8000B0FC0181B0FC0191B0FC01A1B0FC01B14C
:100C9000704700BFA0FC0181A0FC0191A0FC01A154
:100CA000A0FC01B1704700BFEC4600B52DE9005033
:100CB0002DE9FF1F4FF000032DE90C0001A913F0EF
:100CC000FAF9DDF840E012B0704700BFEC4600B51D
:100CD0002DE900502DE9FF1F4FF000032DE90C0016
:100CE00001A913F020FADDF840E012B0704700BF10
:100CF000EC4600B52DE900502DE9FF1F4FF0000331
:100D00002DE90C0001A913F02EFADDF840E012B035
:100D1000704700BFEC4600B52DE900502DE9FF1FDC
:100D20004FF000032DE90C0001AB13F0F1F9DDF8F1
:100D300040E012B0704700BFEC4600B52DE900500E
:100D40002DE9FF1F4FF000032DE90C0001AA13F05D
:100D500061FADDF840E012B0704700BF704700BF95
:100D600001F0FF01102A2BDB10F0070F08D010F85C
:100D7000013B013A8B422DD010F0070F42B3F6D160
:100D8000F0B441EA012141EA014122F007047FF079
:100D900000070023F0E80256083C85EA010586EAD0
:100DA000010685FA47F5A3FA87F586FA47F6A5FA0C
:100DB00087F68EB9EED1F0BC01F0FF0102F0070218
:100DC00032B110F8013B013A83EA010313B1F8D1C3
:100DD0000020704701387047002D06BF35460338A4
:100DE000073815F0010F07D1013015F4807F02BFDD
:100DF000013015F4C03F0130F0BC0138704700BF2E
:100E0000844641EA000313F003036DD1403A41D315
:100E100051F8043B40F8043B51F8043B40F8043BD4
:100E200051F8043B40F8043B51F8043B40F8043BC4
:100E300051F8043B40F8043B51F8043B40F8043BB4
:100E400051F8043B40F8043B51F8043B40F8043BA4
:100E500051F8043B40F8043B51F8043B40F8043B94
:100E600051F8043B40F8043B51F8043B40F8043B84
:100E700051F8043B40F8043B51F8043B40F8043B74
:100E800051F8043B40F8043B51F8043B40F8043B64
:100E9000403ABDD2303211D351F8043B40F8043B04
:100EA00051F8043B40F8043B51F8043B40F8043B44
:100EB00051F8043B40F8043B103AEDD20C3205D314
:100EC00051F8043B40F8043B043AF9D2043208D00C
:100ED000D2071CBF11F8013B00F8013B01D30B887E
:100EE00003806046704700BF082A13D38B078DD05C
:100EF00010F003038AD0C3F10403D21ADB071CBF2E
:100F000011F8013B00F8013B80D331F8023B20F897
:100F1000023B7BE7043AD9D3013A11F8013B00F8D0
:100F2000013BF9D20B7803704B7843708B78837058
:100F30006046704700000000000000000000000054
:100F4000A2EB0300704700BF02780B78012A28BF8C
:100F50009A42F5D16DE9044540EA0104CDE9026702
:100F60006FF0000C4FEA447212B380EA010414F0EF
:100F7000070F6AD100F0070420F0070004F0030512
:100F800021F007014FEAC505F0E8042314F0040F2F
:100F9000F1E804670CFA05F462EA040266EA040662
:100FA0000AD063EA0403624667EA0407664603E080
:100FB000F0E80423F1E8046782FA4CF582EA0604BB
:100FC000A4FA8CF46CBB83FA4CF583EA0705A5FA06
:100FD0008CF595B950E9022351E9026782FA4CF584
:100FE00082EA0604A4FA8CF483FA4CF583EA070536
:100FF000A5FA8CF52543DBD09CB92DBAB5FA85F45A
:1010000024F0070427FA04F1DDE9026723FA04F368
:1010100003F0FF0001F0FF01FDE80445A0EB010033
:10102000704724BAB4FA84F424F0070426FA04F1D1
:10103000DDE9026722FA04F202F0FF0001F0FF018D
:10104000FDE80445A0EB0100704714F0030F3CD10C
:1010500010F0030428D150F8082B51F8083B82FA0D
:101060004CF582EA0305A5FA8CF55DB950F8042C1D
:1010700051F8043C82FA4CF582EA0305A5FA8CF596
:10108000002DE8D02DBAB5FA85F424F0070423FA30
:1010900004F122FA04F202F0FF0001F0FF01FDE882
:1010A0000445A0EB010070474FEAC40420F00300A0
:1010B00050F8082B21F0030151F8083B0CFA04F416
:1010C00062EA040263EA0403C9E710F003041AD0D9
:1010D000A1EB040120F00300E40750F8042B06D034
:1010E0000FD28B785FFAA2F4E41A06D12BB1CB7839
:1010F0005FFAB2F4E41A00D11BB920465DF8104B38
:10110000704701F1040150F8042BCC0721F00301D2
:1011100051F8043B48D824D222F07F4482FA4CF59F
:1011200094EA1325A5FA8CF50AD165B951F8043B68
:1011300084EA0204B4EB036F0ED150F8042BEBE702
:101140004FEA132355E035F07F454DD10878FDE88F
:101150000445C0F1000070474FEA126203F0FF033C
:1011600047E002EA1C4482FA4CF594EA1345A5FADA
:101170008CF50AD165B951F8043B84EA0204B4EB5A
:10118000034F0CD150F8042BEBE74FEA134330E048
:1011900015EA1C4528D10B884FEA124229E04FEA94
:1011A000124203EA1C4324E002F0FF0482FA4CF5E9
:1011B00094EA1365A5FA8CF50AD165B951F8043B98
:1011C00084EA0204B4EB032F09D150F8042BEBE7B7
:1011D0004FEA13630DE015F0FF0F05D10B684FEADE
:1011E000122223F07F4304E04FF00000FDE80445A5
:1011F000704712BA1BBA82FA4CF482EA0304A4FACA
:101200008CF5B5FA85F402FA04F203FA04F34FEA16
:101210001260FDE80445A0EB136070470000000079
:1012200000000000000000000000000000000000BE
:1012300000000000000000000000000000000000AE
:1012400090F800F06DE9024520F007016FF0000C06
:1012500010F0070491F820F040F049804FF00004AE
:101260006FF00700D1E9002391F840F000F1080089
:1012700082FA4CF2A4FA8CF283FA4CF3A2FA8CF3C1
:101280004BBBD1E9022382FA4CF200F10800A4FA28
:101290008CF283FA4CF3A2FA8CF3E3B9D1E904237C
:1012A00082FA4CF200F10800A4FA8CF283FA4CF3B3
:1012B000A2FA8CF37BB9D1E9062301F1200182FA6D
:1012C0004CF200F10800A4FA8CF283FA4CF3A2FA73
:1012D0008CF3002BC6D0002A04BF04301A4612BA81
:1012E000B2FA82F2FDE8024500EBD2007047D1E984
:1012F000002304F00305C4F100004FEAC50514F013
:10130000040F91F840F00CFA05F562EA05021CBFE3
:1013100063EA050362464FF00004A9E710B5054CE7
:10132000227832B9044B13B10448AFF30080012393
:10133000237010BDD4090020000000007CB2010819
:10134000074B10B51BB107490748AFF300800748AA
:10135000036823B1064B13B1BDE81040184710BD18
:1013600000000000D80900207CB20108D409002048
:101370000000000080B500AF40F66833C2F2000301
:1013800060221A8040F66833C2F2000300225A80BD
:1013900040F66833C2F2000300229A8140F66833B7
:1013A000C2F2000309229A6040F66831C2F20001DD
:1013B0004FF48060C4F2000002F0D2FB08214FF429
:1013C0008060C4F2000002F0BEFD40F66831C2F257
:1013D00000014FF48060C4F2000002F03CFC0821E0
:1013E0004FF48060C4F2000002F0C9FD40F668319D
:1013F000C2F200014FF48060C4F2000002F0B4FCBD
:1014000008214FF48060C4F2000002F0D6FD40F6DF
:101410006831C2F200014FF48060C4F2000002F0B3
:101420002AFD08214FF48060C4F2000002F0E1FDC3
:1014300001214FF48060C4F2000002F051FB012151
:101440004FF48060C4F2000002F0F1FD01214FF47E
:101450008060C4F2000002F063FB00BF80BD80B575
:1014600082B000AF0346FB80B7F90630002B32DBB9
:1014700040F66833C2F2000301225A80B7F9063001
:10148000C3F5797302331A4640F66833C2F200039B
:101490009A6040F66831C2F200014FF48060C4F2F5
:1014A000000002F05DFB40F66833C2F20003012247
:1014B0005A8040F66833C2F2000340F2E6329A6086
:1014C00040F66831C2F200014FF48060C4F20000BF
:1014D00002F0C1FB30E040F66833C2F200030122A3
:1014E0005A8040F66833C2F2000340F2E6329A6056
:1014F00040F66831C2F200014FF48060C4F200008F
:1015000002F02EFB40F66833C2F2000301225A803B
:10151000B7F9063003F2E6331A4640F66833C2F2F2
:1015200000039A6040F66831C2F200014FF4806017
:10153000C4F2000002F08FFB00BF0837BD4680BD3B
:1015400080B582B000AF03460A46FB801346BB80DD
:10155000B7F906301846FFF782FFB7F9043018468E
:1015600000F004F800BF0837BD4680BD80B582B0EA
:1015700000AF0346FB80B7F90630002B32DB40F6A4
:101580006833C2F2000301225A8040F66833C2F287
:10159000000340F2E6329A6040F66831C2F2000180
:1015A0004FF48060C4F2000002F0DEFB40F66833C6
:1015B000C2F2000301225A80B7F90630C3F57973ED
:1015C00002331A4640F66833C2F200039A6040F6CE
:1015D0006831C2F200014FF48060C4F2000002F0F2
:1015E0004AFC30E040F66833C2F2000301225A8020
:1015F000B7F9063003F2E6331A4640F66833C2F212
:1016000000039A6040F66831C2F200014FF4806036
:10161000C4F2000002F0A8FB40F66833C2F20003F7
:1016200001225A8040F66833C2F2000340F2E632EB
:101630009A6040F66831C2F200014FF48060C4F253
:10164000000002F018FC00BF0837BD4680BD80B521
:1016500000AF01214FF0804002F062FA01214FF407
:101660008060C4F2010002F05BFA00BF80BD80B56B
:1016700000AF4FF0804002F027FA03461AB240F65E
:10168000F013C2F200031A804FF48060C4F201002C
:1016900002F01AFA03461AB240F6F213C2F200033D
:1016A0001A8040F61C23C2F200031A784CF6CD4390
:1016B000CCF6CC43A3FB0213D9080B469B000B448A
:1016C0005B00D31ADBB2022B26D04FF080430022FE
:1016D0005A624FF48063C4F2010300225A6240F65A
:1016E000F013C2F20003B3F900301A4640F6F213C9
:1016F000C2F20003B3F900301344DA0F13445B1055
:101700001A4640F64023C2F200031B681A4440F612
:101710004023C2F200031A6000BF80BD80B582B0D2
:1017200000AF4FF0804002F0CFF903469AB244F682
:10173000D353C1F26203A3FB02239B099BB2DBB22A
:1017400003F00F03FB71FB7918460837BD4680BDD7
:10175000B0B58CB000AF034687ED020AFB814FF0B5
:101760000003FB6240F63023C2F200031B78DBB2B9
:10177000012B7ED101F067FA03461A4640F69433F6
:10178000C2F20003B3F90030D31A07EE903AF8EE34
:10179000E77A17EE900AFEF777FE4FF0663246F2D0
:1017A0006663C4F23003FEF7EDFF03460C461846AD
:1017B00021464FF000024FF40043C4F26603FEF7E7
:1017C000E1FF03460C461846214648F21F52C5F277
:1017D000EB1241F6B863C4F20903FEF7A9FE034613
:1017E0000C4618462146FFF77BF90346FB6240F69C
:1017F0002423C2F200031B681846FEF745FE044688
:101800000D46D7ED0B7A9FEDD07A67EE877A17EE0B
:10181000900AFEF739FE48F21F52C5F2EB1241F66C
:10182000B863C4F20903FEF7ADFF02460B4610464B
:1018300019464FF000024FF48043C4F28F03FEF7C5
:10184000A1FF02460B4620462946FEF7BFFC034691
:101850000C4618462146FFF743F9024640F624237A
:10186000C2F200031A6040F63023C2F200030022E5
:101870001A70B7F90E301846FEF7F4FD04460D460F
:10188000D7ED027A9FEDB17A67EE877A17EE900A6C
:10189000FEF7FAFD4FF000024FF08043FEF772FFB3
:1018A00002460B4620462946FEF78EFC03460C46B0
:1018B000184621464FF000024FF00003C4F2B00377
:1018C000FEF736FE03460C46184621464FF000024E
:1018D0004FF00003C4F21003FEF72AFE03460C4645
:1018E000184621464FF000024FF48043C4F28F03A4
:1018F000FEF748FF03460C46184621464FF000020B
:101900004FF44043C4F25303FEF73CFF03460C463A
:1019100018462146FFF7E4F80346BB62B7F90E30DC
:101920001846FEF79FFD04460D46D7ED027A9FED5F
:10193000877A67EE877A17EE900AFEF7A5FD4FF0DB
:1019400000024FF08043FEF71DFF02460B46204683
:101950002946FEF73BFC03460C46184621464FF04D
:1019600000024FF00003C4F2B003FEF7E1FD0346AE
:101970000C46184621464FF000024FF00003C4F217
:101980001003FEF7D5FD03460C46184621464FF0DE
:1019900000024FF48043C4F28F03FEF7F3FE0346C8
:1019A0000C46184621464FF000024FF44043C4F263
:1019B0005303FEF7E7FE03460C4618462146FFF7A1
:1019C0008FF803467B624CF6CD43C3F64C633B6213
:1019D0004CF6CD43C3F64C63FB614FF00003C4F2F9
:1019E000C003BB614FF00003C4F2C0037B6140F64B
:1019F0000023C2F200031A6840F60823C2F2000373
:101A00001A6040F60423C2F200031A6840F60C2361
:101A1000C2F200031A6040F6F013C2F20003B3F9F9
:101A2000003007EE903AF8EEE77A97ED0A7A77EE13
:101A3000677A40F60023C2F20003C3ED007A40F655
:101A4000F213C2F20003B3F9003007EE903AF8EE59
:101A5000E77A97ED097A77EE677A40F60423C2F2C7
:101A60000003C3ED007A40F60023C2F2000393EDB9
:101A7000007AD7ED087A27EE277A40F6F813C2F2FB
:101A80000003D3ED006AD7ED067A66EEA77A77EE0B
:101A9000277AFDEEE77AC7ED017ABB881AB240F6E5
:101AA0000423C2F2000393ED007AD7ED077A27EE04
:101AB000277A40F6FC13C2F20003D3ED006AD7ED9B
:101AC000057A66EEA77A77EE277AFDEEE77AC7ED1C
:101AD000017ABB881BB219461046FFF731FD40F66C
:101AE0000023C2F20003D3ED007ADFED196A87EE1E
:101AF000A67A40F6F813C2F20003D3ED007A77EE2F
:101B0000277A40F6F813C2F20003C3ED007A40F6DC
:101B10000423C2F20003D3ED007ADFED0D6A87EEF5
:101B2000A67A40F6FC13C2F20003D3ED007A77EEFA
:101B3000277A40F6FC13C2F20003C3ED007A00BF1F
:101B40003037BD46B0BD00BF0000344300008A42BC
:101B500000007A4498B500AF40F61223C2F20003A9
:101B60001B78DBB2012B01D100F0E7FA40F613231A
:101B7000C2F200031B78DBB2012B34D1002000F04D
:101B8000CBFB40F61023C2F2000300221A8040F67D
:101B90001423C2F200031B8840F65B0293421AD959
:101BA00040F61A23C2F200031B8840F665029342F6
:101BB00011D940F61A23C2F200031A8840F6142302
:101BC000C2F200031B88D31A9BB21AB240F610234C
:101BD000C2F200031A8040F61323C2F2000300226F
:101BE0001A7000F0B0FC40F6F413C2F200031B7848
:101BF000DBB2012B2BD1FFF73AFD40F61023C2F2E6
:101C00000003B3F9003007EE903AF8EEE77A17EEEA
:101C1000900AFEF739FC4AF6FC12CDF2F12246F2A8
:101C20004D23C3F65073FEF783FC03460C4618465B
:101C30002146FEF755FF034600EE103A9620FFF7C7
:101C400087FD40F6F413C2F2000300221A7000BFB1
:101C500098BD000080B500AF40F62423C2F2000317
:101C60004FF000021A6014E040F6F413C2F20003D1
:101C70001B78DBB2012B0CD1FFF7F9FCB0EE000AA8
:101C80000020FFF765FD40F6F413C2F200030022C6
:101C90001A7040F62423C2F20003D3ED007A9FEDC0
:101CA000087AF4EEC77AF1EE10FADDD440F6242378
:101CB000C2F200034FF000021A6000BF80BD00BFF7
:101CC0000000324380B500AF40F62423C2F2000387
:101CD0004FF000021A6014E040F6F413C2F2000361
:101CE0001B78DBB2012B0CD1FFF7C1FCB7EE000A69
:101CF0006420FFF72DFD40F6F413C2F2000300222A
:101D00001A7040F62423C2F20003D3ED007A9FED4F
:101D1000087AF4EEC77AF1EE10FADDD940F6242302
:101D2000C2F200034FF000021A6000BF80BD00BF86
:101D30000000B04280B500AF40F62423C2F2000399
:101D40004FF000021A6014E040F6F413C2F20003F0
:101D50001B78DBB2012B0CD1FFF789FCBFEE000A28
:101D60006420FFF7F5FC40F6F413C2F200030022F2
:101D70001A7040F62423C2F20003D3ED007A9FEDDF
:101D8000087AF4EEC77AF1EE10FADDDA40F6242391
:101D9000C2F200034FF000021A6000BF80BD00BF16
:101DA0000000B0C280B500AF00210020FFF7C8FBE3
:101DB00000F07DF840F64023C2F2000300221A60D2
:101DC00015E040F6F413C2F200031B78DBB2012BDE
:101DD0000DD1FFF74CFC9FED280A6FF06300FFF771
:101DE000B7FC40F6F413C2F2000300221A706FF041
:101DF000A90000F043F8024640F64023C2F2000377
:101E00001B689A42DDDB00F052F840F64023C2F234
:101E1000000300221A6000210020FFF791FB4FF41D
:101E20007A7000F098FE14E040F6F413C2F200035A
:101E30001B78DBB2012B0CD1FFF719FC9FED0E0ACA
:101E40006420FFF785FC40F6F413C2F20003002281
:101E50001A70872000F012F8024640F64023C2F2C2
:101E600000031B689A42DFDC40F64023C2F2000305
:101E700000221A6000BF80BD0000000080B483B063
:101E800000AF78607B689A0345F25B63C6F62F2348
:101E900083FB0213D913D317CB1A4FF47A7202FBC8
:101EA00003F318460C37BD465DF8047B704780B4D9
:101EB00000AF40F60823C2F200034FF000021A60A0
:101EC00040F60C23C2F200034FF000021A6040F605
:101ED0000023C2F200034FF000021A6040F6042310
:101EE000C2F200034FF000021A6040F6F813C2F28B
:101EF00000034FF000021A6040F6FC13C2F2000328
:101F00004FF000021A6000BFBD465DF8047B7047C9
:101F100080B584B000AF0121102002F07EFA4FF4AA
:101F200016533B600023BB800023FB8000233B81D2
:101F30000023BB8108237B813B4619464FF4805028
:101F4000C4F2010002F025FB01214FF48050C4F2DD
:101F5000010002F0E3FB00BF1037BD4680BD80B535
:101F600082B000AF78600B46FB7000BF7B681B88B7
:101F70009BB203F04003002BF8D097F903309BB2DB
:101F80001946786802F0EAFB00BF0837BD4680BDFD
:101F900080B584B000AF786039600023FB810BE02E
:101FA000FB893A68134493F9003019467868FFF7C3
:101FB000D6FFFB890133FB81FB893A68134493F90F
:101FC0000030002BECD100BF1037BD4680BD0FB4F0
:101FD00080B584B000AF07F11C037B607B68BA69F1
:101FE0000021002015F0F4FD0346FB81FB8901333D
:101FF000184613F085FA0346BB607A68B969B86879
:1020000015F010FEB9684FF48050C4F20100FFF7DC
:10201000BFFFB86813F07CFA00BF1037BD46BDE8BB
:10202000804004B0704780B400AF00BFBD465DF88B
:10203000047B704780B500AF40F66833C2F20003FE
:1020400060221A8040F66833C2F2000300225A80F0
:1020500040F66833C2F2000300229A8140F66833EA
:10206000C2F200030E229A6040F66831C2F200010B
:102070004FF48040C4F2010001F072FD08214FF4DA
:102080008040C4F2010001F05EFF40F66831C2F208
:1020900000014FF48040C4F2010001F0DCFD082192
:1020A0004FF48040C4F2010001F069FF01214FF4B8
:1020B0008040C4F2010001F013FD01214FF4804083
:1020C000C4F2010001F0B3FF01214FF48040C4F2DB
:1020D000010001F025FD00BF80BD80B500AF40F6D6
:1020E0006833C2F2000301225A8040F66833C2F21C
:1020F00000030E229A6040F66831C2F200014FF4EC
:102100008040C4F2010001F02BFD40F66833C2F2BA
:10211000000301225A8040F66833C2F200030E2207
:102120009A6040F66831C2F200014FF48040C4F278
:10213000010001F090FD00BF80BD80B582B000AF0E
:102140000023FB80002301220A214FF40050C4F237
:10215000010002F0E1FB4FF40050C4F2010002F074
:10216000A5FC00BF02214FF40050C4F2010002F0B0
:10217000BAFC0346002BF5D04FF40050C4F2010026
:1021800002F0A4FC0346FB80FB889AB240F61423BD
:10219000C2F200031B889A4202D3FB889AB204E081
:1021A00040F61423C2F200031A8840F61423C2F248
:1021B00000031A80002301220B214FF40050C4F2C7
:1021C000010002F0A9FB4FF40050C4F2010002F03C
:1021D0006DFC00BF02214FF40050C4F2010002F078
:1021E00082FC0346002BF5D04FF40050C4F20100EE
:1021F00002F06CFC0346FB80FB889AB240F6162383
:10220000C2F200031B889A4202D3FB889AB204E010
:1022100040F61623C2F200031A8840F61623C2F2D3
:1022200000031A80002301220C214FF40050C4F255
:10223000010002F071FB4FF40050C4F2010002F003
:1022400035FC00BF02214FF40050C4F2010002F03F
:102250004AFC0346002BF5D04FF40050C4F20100B5
:1022600002F034FC0346FB80FB889AB240F6182348
:10227000C2F200031B889A4202D3FB889AB204E0A0
:1022800040F61823C2F200031A8840F61823C2F25F
:1022900000031A80002301220D214FF40050C4F2E4
:1022A000010002F039FB4FF40050C4F2010002F0CB
:1022B000FDFB00BF02214FF40050C4F2010002F008
:1022C00012FC0346002BF5D04FF40050C4F201007D
:1022D00002F0FCFB0346FB80FB889AB240F61A230F
:1022E000C2F200031B889A4202D3FB889AB204E030
:1022F00040F61A23C2F200031A8840F61A23C2F2EB
:1023000000031A8040F61223C2F2000300221A7062
:1023100000BF0837BD4680BD80B584B000AF03461E
:10232000FB71F023FB7397F90730DB435AB2FB795B
:10233000013BDBB25BB213405BB2BB73BB7B03F010
:102340005503DAB2BB7B5B08DBB203F05503DBB2AB
:102350001344BB73BB7B03F03303DAB2BB7B9B0834
:10236000DBB203F03303DBB21344BB73BB7B03F07C
:102370000F03DAB2BB7B1B09DBB21344BB7340F61D
:102380001423C2F200031B8840F63302934220D983
:1023900001224FF480514FF48060C4F2020001F03A
:1023A000AAFABB7B08229A4048F68903C8F688033C
:1023B00083FB02131344D910D317C91A0B461B0110
:1023C0005B1AD11A4AB297F90F3013435BB2FB7311
:1023D00008E000224FF480514FF48060C4F2020004
:1023E00001F089FA40F61623C2F200031B88B3F508
:1023F000166F29D340F61823C2F200031B8840F65B
:102400005332934220D901224FF400514FF480609F
:10241000C4F2020001F06FFABB7B01229A4048F639
:102420008903C8F6880383FB02131344D910D3171A
:10243000C91A0B461B015B1AD11A4AB297F90F3021
:1024400013435BB2FB7308E000224FF400514FF4DA
:102450008060C4F2020001F04EFA40F61A23C2F284
:1024600000031B8840F63302934220D901224FF427
:1024700000414FF48060C4F2020001F03CFABB7BE3
:1024800002229A4048F68903C8F6880383FB0213A8
:102490001344D910D317C91A0B461B015B1AD11A62
:1024A0004AB297F90F3013435BB2FB7308E0002286
:1024B0004FF400414FF48060C4F2020001F01BFAB7
:1024C000FB7B18461037BD4680BD80B500AF40F697
:1024D0001323C2F2000300221A7040F61223C2F244
:1024E000000300221A7000BF40F61323C2F200035B
:1024F0001B78DBB2002BF7D040F61323C2F20003A7
:1025000000221A7040F61223C2F2000300221A7051
:1025100009E040F61223C2F200031B78DBB2012B64
:1025200001D1FFF70AFE40F61323C2F200031B7825
:10253000DBB2002BEDD040F61323C2F200030022E1
:102540001A7000BF80BD80B400AF40F61423C2F201
:10255000000300221A8040F61623C2F20003002274
:102560001A8040F61823C2F2000300221A8040F6B7
:102570001A23C2F2000300221A8000BFBD465DF894
:10258000047B704780B400AF01231846BD465DF858
:10259000047B704780B582B000AF7860396012F07C
:1025A00047FA0246162313604FF0FF3318460837E8
:1025B000BD4680BD80B582B000AF78604FF0FF317E
:1025C0007868FFF7E7FFFEE790B587B000AFF860E7
:1025D000B9607A6000237B610AE0BC68631CBB6061
:1025E000AFF3008003465BB223707B6901337B61EC
:1025F0007A697B689A42F0DB7B6818461C37BD46D7
:1026000090BD80B586B000AFF860B9607A600023F5
:102610007B610AE0BB685A1CBA6093F90030184627
:10262000AFF300807B6901337B617A697B689A42F2
:10263000F0DB7B6818461837BD4680BD80B483B098
:1026400000AF78604FF0FF3318460C37BD465DF899
:10265000047B704780B483B000AF786039603B681A
:102660004FF400525A60002318460C37BD465DF8FF
:10267000047B704780B483B000AF786001231846B4
:102680000C37BD465DF8047B704780B485B000AF61
:10269000F860B9607A60002318461437BD465DF8CB
:1026A000047B704780B582B000AF0121012001F0AA
:1026B00062FE0121022001F05EFE0121042001F0F2
:1026C0005AFE0121082001F056FE04233B6002233C
:1026D000FB710023BB7103237B7101233B713B46DC
:1026E00019464FF44060C4F2020001F042F83B4644
:1026F000184601F0CCF8012200210020C4F20200AB
:1027000001F023F9012201210020C4F2020001F0AE
:102710001CF903233B600023BB710023FB710023E2
:102720007B7102233B713B4619460020C4F2020034
:1027300001F01FF83B46184601F0A9F803220621D4
:102740004FF40060C4F2020001F0FFF803220721F9
:102750004FF40060C4F2020001F0F7F8C0233B60C0
:102760000023BB710023FB7100237B7102233B71AB
:102770003B4619464FF40060C4F2020000F0F9FF36
:102780003B46184601F083F84FF478433B60002342
:10279000BB710223FB7100237B7101233B713B461C
:1027A00019464FF48060C4F2020000F0E2FF3B469D
:1027B000184601F06CF820233B6000237B71032353
:1027C0003B713B4619464FF40060C4F2020000F032
:1027D000D0FF3B46184601F05AF84FF400733B60B7
:1027E00003237B710023BB710223FB7102233B7126
:1027F0003B4619460020C4F2020000F0BAFF07224F
:1028000009210020C4F2020001F09FF83B4618465F
:1028100001F03DF84FF460433B600023BB7100239F
:102820007B7100233B710223FB713B4619464FF439
:102830000060C4F2020000F09CFF3B46184601F025
:1028400026F833233B600223FB710023BB71002376
:102850007B7102233B71022200214FF48060C4F29D
:10286000020001F072F8022201214FF48060C4F2EC
:10287000020001F06AF8022204214FF48060C4F2E1
:10288000020001F062F8022205214FF48060C4F2D8
:10289000020001F05AF83B4619464FF48060C4F23A
:1028A000020000F066FF3B46184600F0F0FFE02310
:1028B0003B600023FB710023BB7100237B7102236B
:1028C0003B71052205210020C4F2020001F03DF811
:1028D000052206210020C4F2020001F036F805228C
:1028E00007210020C4F2020001F02FF83B461946F0
:1028F0000020C4F2020000F03CFF3B46184600F006
:10290000C6FF10233B600023BB7100237B710123B2
:102910003B713B4619460020C4F2020000F029FF3B
:102920003B46184600F0B3FF032202210020C4F208
:10293000020001F00AF8032203210020C4F2020081
:1029400001F003F80C233B600023BB7100237B7173
:1029500002233B713B4619460020C4F2020000F0FE
:1029600008FF3B46184600F092FF0F233B60002310
:102970007B7103233B713B4619464FF40060C4F260
:10298000020000F0F6FE3B46184600F080FF00BF54
:102990000837BD4680BD80B582B000AF0023FB7113
:1029A0001EE0FEF7BBFE0346FB71FB799BB2DB0228
:1029B0009BB2012219464FF48060C4F2020000F07D
:1029C0009AFFFB799BB2C3F10F039BB2DB029BB270
:1029D000002219464FF48060C4F2020000F08BFF21
:1029E0004FF400514FF40060C4F2020000F069FFA0
:1029F0000346002BD5D0002200214FF48060C4F2A2
:102A0000020000F078FFFB7918460837BD4680BD0C
:102A100080B483B000AF03463960FB7197F907308B
:102A2000002B0FDA4FF46D43CEF20003FA7902F077
:102A30000F02043A3968C9B20901C9B213440A46FF
:102A40001A760DE04FF46143CEF2000397F90720A8
:102A50003968C9B20901C9B213440A4683F8002390
:102A600000BF0C37BD465DF8047B704780B582B06F
:102A700000AF78607B68013BB3F1807F01D3012315
:102A800018E04EF21003CEF200037A68013A5A6061
:102A90000F214FF0FF30FFF7BBFF4EF21003CEF2D5
:102AA000000300229A604EF21003CEF200030722C8
:102AB0001A60002318460837BD4680BD80B400AFB9
:102AC00040F62023C2F200031B68002B0AD040F618
:102AD0002023C2F200031B685A1E40F62023C2F2D4
:102AE00000031A6000BFBD465DF8047B704780B5E7
:102AF00000AF40F68030C2F2000001F069FB40F602
:102B00008033C2F200035A6844F6D353C1F2620321
:102B1000A3FB02239A0940F67C33C2F200031A6039
:102B200040F68033C2F200035A684DF68363C4F264
:102B30001B33A3FB02239A0C40F69033C2F200032E
:102B40001A6040F67C33C2F200031B681846FFF798
:102B50008DFF00BF80BD80B483B000AF78604EF2BF
:102B60001003CEF2000340F67C32C2F2000212687B
:102B700022F07F42013A5A6040F62023C2F200035D
:102B80007A681A6000BF40F62023C2F200031B6877
:102B9000002BF8D100BF0C37BD465DF8047B7047B1
:102BA00080B400AF00BFBD465DF8047B704780B4C1
:102BB00000AFFEE780B400AFFEE780B400AFFEE7F1
:102BC00080B400AFFEE780B400AF00BFBD465DF843
:102BD000047B704780B586B000AF01214FF4805070
:102BE00001F01BFC0023BB804FF48273FB800023A9
:102BF0003B8102237B810123BB814FF40073FB8166
:102C000028233B8200237B823B1D19464FF4405012
:102C1000C4F2010001F081FF01214FF44050C4F2E1
:102C2000010001F0BEFF00BF1837BD4680BD80B572
:102C300000AF00211A2000F073F818211B2000F0CB
:102C40006FF800BF80BD90B583B000AF472000F0A3
:102C500043F803461B021CB2482000F03DF803462F
:102C60001BB22343FB80B7F9063018460C37BD462C
:102C700090BD80B584B000AF0346FB710023FB73A9
:102C800000BF02214FF44050C4F2010001F0C5FF23
:102C90000346002BF5D0FB799BB219464FF4405008
:102CA000C4F2010001F0AAFF00BF01214FF440501F
:102CB000C4F2010001F0B1FF0346002BF5D04FF440
:102CC0004050C4F2010001F08CFF0346FB73FB7B14
:102CD00018461037BD4680BD80B584B000AF0346AE
:102CE000FB71002210210020C4F2020000F003FE5C
:102CF000FB7963F07F03DBB21846FFF7BAFF0020D1
:102D0000FFF7B7FF0346FB73012210210020C4F236
:102D1000020000F0F0FDFB7B18461037BD4680BD79
:102D200080B582B000AF03460A46FB711346BB7103
:102D3000002210210020C4F2020000F0DCFDFB792B
:102D40001846FFF796FFBB791846FFF792FF01225E
:102D500010210020C4F2020000F0CDFD00BF0837B2
:102D6000BD4680BD80B582B000AF00237B600023EC
:102D70003B6009E0FFF767FF03461A467B68134490
:102D80007B603B6801333B603B68B3F57A7FF1DBE6
:102D90007A6844F6D353C1F2620383FB021399119C
:102DA000D317CB1A1AB240F69433C2F200031A803A
:102DB00040F69433C2F20003B3F90030194649F2E9
:102DC0003860C0F60100FFF702F900BF0837BD46C2
:102DD00080BD2DE9B04382B000AF40F62E23C2F291
:102DE00000031B881AB240F62C23C2F200031A809B
:102DF000FFF729FF03469AB240F69433C2F200036C
:102E0000B3F900309BB2D31A9BB21AB240F62E230C
:102E1000C2F200031A8040F62423C2F200031A68AB
:102E200040F62823C2F200031A6040F62C23C2F2B7
:102E300000031B881BB21A4640F62E23C2F2000381
:102E40001B881BB2134407EE903AF8EEE77A17EEB0
:102E5000900AFDF719FB4FF0663246F26663C4F242
:102E60003003FDF78FFC03460C46184621464FF011
:102E700000024FF08043FDF785FC03460C461846E0
:102E800021464FF000024FF48043C4F28F03FDF758
:102E900079FC03460C4625461C4640F62423C2F224
:102EA00000031B681846FDF7EFFA22462B46FDF794
:102EB0008DF903460C4618462146FDF711FE0246E1
:102EC00040F62423C2F200031A604FF081437B6076
:102ED0004CF6CD43C3F64C633B6040F62423C2F26C
:102EE000000393ED007AD7ED017A67EE277A17EEAB
:102EF000900AFDF7C9FA04460D4640F62423C2F2B3
:102F0000000393ED007A40F62823C2F20003D3EDCC
:102F1000007A77EE677A17EE900AFDF7B5FA4FF070
:102F200000024FF48043C4F28F03FDF701FB024619
:102F30000B46904699463868FDF7A6FA02460B46BE
:102F400040464946FDF7F4FA02460B46204629461C
:102F5000FDF73CF903460C4618462146FDF798FD5F
:102F6000024640F63423C2F200031A6000BF08375D
:102F7000BD46BDE8B08380B500AF40F6A433C2F2D1
:102F8000000337221A7040F6A433C2F20003002275
:102F90005A7040F6A433C2F2000300229A7040F641
:102FA000A433C2F200030122DA7040F6A430C2F268
:102FB000000001F084FA40F6A433C2F200031E229E
:102FC0001A7040F6A433C2F2000303225A7040F68E
:102FD000A433C2F2000300229A7040F6A433C2F276
:102FE00000030122DA7040F6A430C2F2000001F0C2
:102FF00066FA40F6A433C2F2000332221A7040F699
:10300000A433C2F2000301225A7040F6A433C2F284
:10301000000300229A7040F6A433C2F2000301229A
:10302000DA7040F6A430C2F2000001F048FA012143
:10303000012001F0C9F90121022001F0C5F90121A7
:10304000042001F0C1F90121082001F0BDF901219E
:10305000202001F0B9F90121022001F0DEF901215F
:103060004FF4803001F0D9F940F69833C2F20003F2
:103070004FF6FE725A6040F69833C2F20003002207
:103080001A8040F69833C2F2000300221A8140F6FB
:103090009833C2F2000300229A7240F69831C2F2CD
:1030A00000014FF0804000F099FC00230022032132
:1030B0004FF0804001F040F840F69833C2F2000330
:1030C00014225A6040F69833C2F2000327221A8075
:1030D00040F69831C2F200014FF44060C4F20000A3
:1030E00000F07CFC40F69833C2F2000340F2E73275
:1030F0005A6040F69833C2F2000363221A8040F609
:103100009831C2F200014FF40060C4F2000000F0F8
:1031100065FC40F69833C2F2000340F2E7325A6091
:1031200040F69833C2F2000300221A8040F698312C
:10313000C2F200014FF48060C4F2000000F04EFCC7
:1031400040F69833C2F2000331225A6040F69833B9
:10315000C2F2000340F28F621A8040F69831C2F248
:1031600000014FF48040C4F2010000F037FC40F64B
:103170009833C2F200034FF6FE725A6040F698335D
:10318000C2F2000300221A8040F69831C2F2000118
:103190004FF48060C4F2010000F020FC0223002202
:1031A00003214FF48060C4F2010000F0C5FF01224A
:1031B00001214FF40060C4F2000000F05EFF012224
:1031C00001214FF44060C4F2000000F056FF00BF40
:1031D00080BD80B500AF01214FF44060C4F2000013
:1031E00000F06FFF0346002B4AD001214FF44060EE
:1031F000C4F2000000F08FFF40F63823C2F2000353
:1032000019688A0942F66353C0F23E53A3FB0223B6
:103210009B094FF45462C0F2030202FB03F3CB1A82
:103220005A1C40F63823C2F200031A6040F63823D5
:10323000C2F200031A6848F21F53C5F2EB13A3FB56
:1032400002135B09642101FB03F3D31A002B11D194
:1032500040F63023C2F2000301221A7040F6F41344
:10326000C2F2000301221A7040F61323C2F20003D7
:1032700001221A7040F61223C2F2000301221A70D2
:1032800000BF80BD80B500AF01214FF0804000F04D
:1032900018FF0346002B04D001214FF0804000F0BE
:1032A0003AFF00BF80BD80B500AF01214FF48060C0
:1032B000C4F2000000F005FF0346002B06D00121F8
:1032C0004FF48060C4F2000000F025FF00BF80BD15
:1032D00080B500AF01214FF40060C4F2000000F09F
:1032E000F0FE0346002B36D001214FF40060C4F2FB
:1032F000000000F010FF40F63C23C2F200031A88E1
:103300004AF6AB23CAF6AA23A3FB021359080B46BD
:103310005B000B44D31A9BB201339AB240F63C23B4
:10332000C2F200031A8040F63C23C2F200031B885D
:10333000012B08D1012204214FF44060C4F20200A5
:1033400000F0D9FA07E0002204214FF44060C4F2F3
:10335000020000F0D0FA00BF80BD80B500AF0121AF
:103360004FF4A050C4F2000000F0ABFE0346002B67
:103370000ED001214FF4A050C4F2000000F0CBFEAB
:103380004FF480514FF48060C4F2020000F0CBFA99
:1033900000BF80BD80B582B000AF0346FB80FB88D4
:1033A00049F6404292FBF3F31A4640F69833C2F2D4
:1033B00000035A6040F69831C2F200014FF40060F9
:1033C000C4F2000000F00AFB012201214FF400606A
:1033D000C4F2000000F051FE01214FF40060C4F27D
:1033E000000000F09DFB00BF0837BD4680BD80B5E2
:1033F00000AF00214FF40060C4F2000000F090FB29
:1034000000BF80BD80B582B000AF0346FB80FB8863
:103410001A46920013449BB21846FFF7BBFFC82020
:10342000FFF799FBFFF7E3FF00BF0837BD4680BDFC
:1034300080B500AF4FF46D43CEF200034FF46D4200
:10344000CEF20002D2F8882042F47002C3F888203D
:103450004FF46053C4F202034FF46052C4F202020C
:10346000126842F001021A604FF46053C4F2020382
:1034700000229A604FF46052C4F202024FF460538B
:10348000C4F202031B6823F0847323F480331360B7
:103490004FF46053C4F2020343F21002C2F200423E
:1034A0005A604FF46053C4F202034FF46052C4F206
:1034B0000202126822F480221A604FF46053C4F2B0
:1034C00002030022DA6000F009F84FF46D43CEF2F7
:1034D00000034FF000629A6000BF80BD80B400AF6F
:1034E0004FF46053C4F202034FF46052C4F202027C
:1034F000126C42F080521A644FF4E043C4F20003AD
:103500004FF4E042C4F20002126842F440421A60F2
:103510004FF46053C4F202034FF46052C4F202024B
:1035200092689A604FF46053C4F202034FF4605201
:10353000C4F20202926842F400429A604FF460536F
:10354000C4F202034FF46052C4F20202926842F4E1
:10355000A0529A604FF46053C4F2020345F2104245
:10356000C0F200725A604FF46053C4F202034FF489
:103570006052C4F20202126842F080721A6000BF08
:103580004FF46053C4F202031B6803F00073002B76
:10359000F6D04FF47053C4F2020340F205621A6091
:1035A0004FF46053C4F202034FF46052C4F20202BB
:1035B000926822F003029A604FF46053C4F202034F
:1035C0004FF46052C4F20202926842F002029A6022
:1035D00000BF4FF46053C4F202039B6803F00C0376
:1035E000082BF6D100BFBD465DF8047B704780B55F
:1035F0008AB000AF01F0C4F801214FF4807000F0F0
:103600000CFF3B46184601F01FF90023BB614FF445
:103610008033FB6100233B624FF4A0637B6207F1C0
:103620001803184601F02FF900233B6000233B717B
:1036300000237B710023BB6000233B6100233B61BF
:1036400000233B6105233B753B4619464FF4005070
:10365000C4F2010001F0A2F84FF4FA70FFF77BFA10
:1036600001214FF40050C4F2010001F039F900BF0C
:103670002837BD4680BD80B582B000AF032301224C
:103680000F214FF40050C4F2010001F045F94FF44E
:103690000050C4F2010001F009FA00BF02214FF40A
:1036A0000050C4F2010001F01EFA0346002BF5D0D1
:1036B0004FF40050C4F2010001F008FA0346FB8009
:1036C000FB88194649F25060C0F60100FEF77FFC06
:1036D000FB88B3F5805F04D3FFF789FFFFF7CBFFCB
:1036E00043E0FB88B3F5436F3FD201224FF4006102
:1036F0004FF48060C4F2020000F0FDF801224FF4A4
:1037000080514FF48060C4F2020000F0F4F801220E
:103710004FF400514FF48060C4F2020000F0EBF867
:1037200001224FF480414FF48060C4F2020000F0A7
:10373000E2F801224FF400414FF48060C4F202002D
:1037400000F0D9F81420FFF725FE4FF47A70FFF748
:1037500002FAFFF74CFE0A20FFF71CFE4FF47A70C6
:10376000FFF7F9F9FFF743FEFEE700BF0837BD4654
:1037700080BD80B487B000AF7860396000237B6182
:1037800000233B610023FB6000237B6176E0012284
:103790007B6902FA03F33B613B681A683B6913409B
:1037A000FB60FA683B699A4265D17B681A687B695D
:1037B0005B00032101FA03F3DB431A407B681A60C4
:1037C0007B681A683B681B7919467B695B0001FAC4
:1037D00003F31A437B681A603B681B79012B03D003
:1037E0003B681B79022B2ED17B689A687B695B0052
:1037F000032101FA03F3DB431A407B689A607B687C
:103800009A683B685B7919467B695B0001FA03F3B0
:103810001A437B689A607B685A687B699BB2194639
:1038200001238B40DB431A407B685A607B685B68EE
:103830003A68927911467A6992B201FA02F292B22A
:103840001A437B685A607B68DA687B699BB25B00CD
:10385000032101FA03F3DB431A407B68DA607B68DB
:10386000DA683B68DB7919467B695B0001FA03F390
:103870001A437B68DA607B6901337B617B690F2BBC
:1038800085D900BF1C37BD465DF8047B704780B406
:1038900083B000AF78607B684FF6FF721A607B6878
:1038A00000221A717B6800225A717B6800229A718B
:1038B0007B680022DA7100BF0C37BD465DF8047BDF
:1038C000704780B485B000AF78600B467B800023E2
:1038D000FB737B681A697B881340002B02D001239D
:1038E000FB7301E00023FB73FB7B18461437BD46D6
:1038F0005DF8047B704780B483B000AF78600B46FE
:103900007B8013467B707B78002B03D07B687A88A2
:103910001A8302E07B687A885A8300BF0C37BD4661
:103920005DF8047B704780B483B000AF78600B46CD
:103930007B807B685A697B885A407B685A6100BFEC
:103940000C37BD465DF8047B704780B485B000AF8E
:1039500078600B467B8013467B700023FB6000235E
:10396000BB607A787B8803F007039B0002FA03F3BD
:10397000FB607B88DB089BB218467B88DB089BB228
:103980001A467B68083253F822207B8803F007032D
:103990009B000F2101FA03F3DB4302EA03017B687A
:1039A00000F1080243F822107B88DB089BB21A461C
:1039B0007B68083253F82220FB681343BB607B8886
:1039C000DB089BB21A467B680832B96843F82210BC
:1039D00000BF1437BD465DF8047B704780B485B0E6
:1039E00000AF786039600023FB817B681B88FB8116
:1039F0007A680023C4F201039A421FD07A684FF418
:103A00008063C4F201039A4218D07B68B3F1804FFF
:103A100014D07A684FF48063C4F200039A420DD048
:103A20007A684FF40063C4F200039A4206D07A68C1
:103A30004FF44063C4F200039A4208D1FB8923F09B
:103A40007003FB813B685A88FB891343FB817A68CA
:103A50004FF48053C4F200039A420FD07A684FF4B7
:103A6000A053C4F200039A4208D0FB8923F44073A8
:103A7000FB813B681A89FB891343FB817B68FA89C8
:103A80001A803B685A687B68DA623B681A887B68F0
:103A90001A857A680023C4F201039A4206D07A6834
:103AA0004FF48063C4F201039A4204D13B689B7ACD
:103AB0009AB27B681A867B6801229A8200BF14370B
:103AC000BD465DF8047B704780B483B000AF78607A
:103AD0007B685B6A18460C37BD465DF8047B70470F
:103AE00080B483B000AF78600B46FB70FB78002B8E
:103AF00008D07B681B889BB243F080039AB27B6836
:103B00001A8007E07B681B889BB223F080039AB27F
:103B10007B681A8000BF0C37BD465DF8047B704798
:103B200080B483B000AF78600B46FB70FB78002B4D
:103B300008D07B681B889BB243F001039AB27B6874
:103B40001A8007E07B681B889BB223F001039AB2BE
:103B50007B681A8000BF0C37BD465DF8047B704758
:103B600080B485B000AF7860396000237B8100238A
:103B7000FB810023BB817B681B8C9BB223F001037C
:103B80009AB27B681A847B681B8CFB817B689B885C
:103B9000BB817B681B8B7B817B8923F070037B81DE
:103BA0007B8923F003037B813B681A887B8913435D
:103BB0007B81FB8923F00203FB813B689A89FB89A7
:103BC0001343FB813B685A88FB891343FB817A6866
:103BD0000023C4F201039A4206D07A684FF480634E
:103BE000C4F201039A4223D1FB8923F00803FB812D
:103BF0003B68DA89FB891343FB81FB8923F00403CB
:103C0000FB813B689A88FB891343FB81BB8923F4C2
:103C10008073BB81BB8923F40073BB813B681A8A24
:103C2000BB891343BB813B685A8ABB891343BB8161
:103C30007B68BA899A807B687A891A833B689A681C
:103C40007B685A637B68FA891A8400BF1437BD46C3
:103C50005DF8047B704780B485B000AF7860396050
:103C600000237B810023FB810023BB817B681B8CAD
:103C70009BB223F010039AB27B681A847B681B8C7A
:103C8000FB817B689B88BB817B681B8B7B817B89ED
:103C900023F4E0437B817B8923F440737B813B6881
:103CA0001B881B029AB27B8913437B81FB8923F01B
:103CB0002003FB813B689B891B019AB2FB8913435C
:103CC000FB813B685B881B019AB2FB891343FB8134
:103CD0007A680023C4F201039A4206D07A684FF44E
:103CE0008063C4F201039A422BD1FB8923F0800345
:103CF000FB813B68DB891B019AB2FB891343FB8183
:103D0000FB8923F04003FB813B689B881B019AB22F
:103D1000FB891343FB81BB8923F48063BB81BB898F
:103D200023F40063BB813B681B8A9B009AB2BB896A
:103D30001343BB813B685B8A9B009AB2BB891343E8
:103D4000BB817B68BA899A807B687A891A833B68D1
:103D50009A687B689A637B68FA891A8400BF143773
:103D6000BD465DF8047B704780B485B000AF7860D5
:103D7000396000237B810023FB810023BB817B68AA
:103D80001B8C9BB223F480739AB27B681A847B6885
:103D90001B8CFB817B689B88BB817B689B8B7B81B9
:103DA0007B8923F070037B817B8923F003037B8174
:103DB0003B681A887B8913437B81FB8923F400735A
:103DC000FB813B689B891B029AB2FB891343FB81F1
:103DD0003B685B881B029AB2FB891343FB817A68BC
:103DE0000023C4F201039A4206D07A684FF480633C
:103DF000C4F201039A422BD1FB8923F40063FB81B7
:103E00003B68DB891B029AB2FB891343FB81FB8968
:103E100023F48063FB813B689B881B029AB2FB8979
:103E20001343FB81BB8923F48053BB81BB8923F4FB
:103E30000053BB813B681B8A1B019AB2BB891343A9
:103E4000BB813B685B8A1B019AB2BB891343BB8170
:103E50007B68BA899A807B687A899A833B689A687A
:103E60007B68DA637B68FA891A8400BF1437BD4621
:103E70005DF8047B704780B485B000AF786039602E
:103E80000023BB8100237B810023FB817B681B8C8B
:103E90009BB223F480539AB27B681A847B681B8C94
:103EA0007B817B689B88FB817B689B8BBB81BB890B
:103EB00023F4E043BB81BB8923F44073BB813B689F
:103EC0001B881B029AB2BB891343BB817B8923F4F5
:103ED00000537B813B689B891B039AB27B89134308
:103EE0007B813B685B881B039AB27B8913437B8190
:103EF0007A680023C4F201039A4206D07A684FF42C
:103F00008063C4F201039A420AD1FB8923F48043FF
:103F1000FB813B681B8A9B019AB2FB891343FB819F
:103F20007B68FA899A807B68BA899A833B689A6829
:103F30007B681A647B687A891A8400BF1437BD468F
:103F40005DF8047B704780B485B000AF78600B46A5
:103F50007B800023FB817B681B8BFB81FB8923F02B
:103F60000803FB81FA897B881343FB817B68FA890C
:103F70001A8300BF1437BD465DF8047B704780B4D8
:103F800085B000AF78600B467B800023FB817B68A7
:103F90001B8BFB81FB8923F40063FB817B881B0265
:103FA0009AB2FB891343FB817B68FA891A8300BFAD
:103FB0001437BD465DF8047B704780B485B000AF10
:103FC00078600B467B800023FB817B689B8BFB81A9
:103FD000FB8923F00803FB81FA897B881343FB816B
:103FE0007B68FA899A8300BF1437BD465DF8047B6D
:103FF000704780B485B000AF78600B467B800023AB
:10400000FB817B689B8BFB81FB8923F40063FB8135
:104010007B881B029AB2FB891343FB817B68FA8978
:104020009A8300BF1437BD465DF8047B704780B4A7
:1040300083B000AF78600B46FB70FB78002B0CD090
:104040007B68B3F844309BB26FEA43436FEA534353
:104050009AB27B68A3F8442009E07B68B3F8443047
:104060009BB2C3F30E039AB27B68A3F8442000BF4F
:104070000C37BD465DF8047B704780B483B000AF59
:1040800078600B467B8013467B707B78002B08D0D2
:104090007B689B899AB27B8813439AB27B689A812A
:1040A00009E07B689B899AB27B88DB439BB2134013
:1040B0009AB27B689A8100BF0C37BD465DF8047BDD
:1040C000704780B485B000AF78600B467B800023DA
:1040D000FB730023BB8100237B817B681B8A9AB220
:1040E0007B881340BB817B689B899AB27B88134095
:1040F0007B81BB89002B05D07B89002B02D001235B
:10410000FB7301E00023FB73FB7B18461437BD46AD
:104110005DF8047B704780B483B000AF78600B46D5
:104120007B807B88DB439AB27B681A8200BF0C37A6
:10413000BD465DF8047B704780B487B000AFF8607F
:10414000084611461A4603467B810B463B811346BF
:10415000FB800023FB820023BB8200237B82FB6861
:104160001B89FB82FB681B8BBB82FB681B8C7B82E1
:10417000FB8A23F00703FB82FA8A7B891343FB82C5
:10418000BB8A23F4407323F00303BB82BB8A43F44E
:10419000807343F00103BB827B8A23F022037B827E
:1041A000FB881B019AB23B8913439AB27B8A134363
:1041B0007B82FB68FA8A1A81FB68BA8A1A83FB68D9
:1041C0007A8A1A8400BF1C37BD465DF8047B7047AD
:1041D00080B489B000AF78600023BB6100237B61AD
:1041E0000023FB6102233B610023FB600223BB60D1
:1041F0004FF46053C4F202039B6803F00C03BB61ED
:10420000BB69042B0AD0082B0FD0002B58D17A6839
:104210004FF41053C0F2F403136058E07A684FF47F
:104220009053C0F27A03136051E04FF46053C4F22C
:1042300002035B689B0D03F00103FB604FF46053C6
:10424000C4F202035B6803F03F03BB60FB68002B12
:1042500012D04FF49053C0F27A03BA68B3FBF2F273
:104260004FF46053C4F202035B689B09C3F3080375
:1042700003FB02F3FB6111E04FF41053C0F2F403AF
:10428000BA68B3FBF2F24FF46053C4F202035B6806
:104290009B09C3F3080303FB02F3FB614FF4605374
:1042A000C4F202035B681B0C03F0030301335B00E1
:1042B0003B61FA693B69B2FBF3F27B681A6006E086
:1042C0007A684FF41053C0F2F403136000BF4FF448
:1042D0006053C4F202039B6803F0F003BB61BB6947
:1042E0001B09BB6140F20403C2F20003BA69134424
:1042F0001B78DBB27B617B681A687B69DA407B687C
:104300005A604FF46053C4F202039B6803F4E05315
:10431000BB61BB699B0ABB6140F20403C2F20003AC
:10432000BA6913441B78DBB27B617B685A687B698E
:10433000DA407B689A604FF46053C4F202039B68D2
:1043400003F46043BB61BB695B0BBB6140F20403D8
:10435000C2F20003BA6913441B78DBB27B617B684D
:104360005A687B69DA407B68DA6000BF2437BD4653
:104370005DF8047B704780B483B000AF78600B4673
:10438000FB70FB78002B0CD04FF46053C4F2020397
:104390004FF46052C4F20202116B7A680A431A6346
:1043A0000CE04FF46053C4F202034FF46052C4F2C5
:1043B0000202116B7A68D2430A401A6300BF0C37BD
:1043C000BD465DF8047B704780B483B000AF786071
:1043D0000B46FB70FB78002B0CD04FF46053C4F2FB
:1043E00002034FF46052C4F20202116C7A680A436D
:1043F0001A640CE04FF46053C4F202034FF46052AD
:10440000C4F20202116C7A68D2430A401A6400BFF7
:104410000C37BD465DF8047B704780B483B000AFB5
:1044200078600B46FB70FB78002B0CD04FF4605388
:10443000C4F202034FF46052C4F20202516C7A6873
:104440000A435A640CE04FF46053C4F202034FF481
:104450006052C4F20202516C7A68D2430A405A6434
:1044600000BF0C37BD465DF8047B704780B483B055
:1044700000AF78600B46FB70FB78002B0CD04FF43C
:104480006053C4F202034FF46052C4F20202516A54
:104490007A680A435A620CE04FF46053C4F2020394
:1044A0004FF46052C4F20202516A7A68D2430A4061
:1044B0005A6200BF0C37BD465DF8047B704780B47C
:1044C00085B000AF78600023FB730023BB730F231C
:1044D0007B737B68DB78002B42D04FF46D43CEF2C8
:1044E0000003DB68DB431B0ADBB203F00703FB734B
:1044F000FB7BC3F10403BB737A7BFB7B42FA03F3C0
:104500007B737B685B781A46BB7B02FA03F3FB7311
:104510007B689A787B7B1340DAB2FB7B1343FB7397
:10452000FB7B1B01FB734FF46143CEF200037A68FF
:1045300012781344FA7B83F800234FF46143CEF2E0
:1045400000037A6812785209D2B210467A6812785B
:1045500002F01F02012101FA02F243F8202012E0CA
:104560004FF46143CEF200037A6812785209D2B256
:1045700010467A68127802F01F020121914000F182
:10458000200243F8221000BF1437BD465DF8047BBB
:10459000704780B58AB000AF7860396000237B62D5
:1045A00000233B620023FB610023BB617B681B8A05
:1045B0009BB27B627B6A23F440537B623B68DB885F
:1045C0001A467B6A13437B627B6A9AB27B681A82C3
:1045D0007B689B899BB27B627B6A23F4B05323F098
:1045E0000C037B623B689A883B681B8913439AB231
:1045F0003B685B8913439BB21A467B6A13437B6219
:104600007B6A9AB27B689A817B689B8A9BB27B6249
:104610007B6A23F440737B623B689B891A467B6A02
:1046200013437B627B6A9AB27B689A8207F1080324
:104630001846FFF7CDFD7A684FF48053C4F20103AA
:104640009A4206D07A684FF4A053C4F201039A420A
:1046500002D17B693B6201E03B693B627B689B89DD
:104660009BB21BB2002B0CDA3A6A13469B00134430
:104670009A001A443B681B685B00B2FBF3F3FB61D2
:104680000BE03A6A13469B0013449A001A443B68B5
:104690001B689B00B2FBF3F3FB61FA6948F21F53FE
:1046A000C5F2EB13A3FB02235B091B017B627B6A50
:1046B0001B09642202FB03F3FA69D31ABB617B680E
:1046C0009B899BB21BB2002B10DABB69DB0003F1A4
:1046D000320248F21F53C5F2EB13A3FB02235B091E
:1046E00003F007037A6A13437B620FE0BB691B0187
:1046F00003F1320248F21F53C5F2EB13A3FB02236E
:104700005B0903F00F037A6A13437B627B6A9AB2F8
:104710007B681A8100BF2837BD4680BD80B483B056
:1047200000AF78600B46FB70FB78002B08D07B68ED
:104730009B899BB243F400539AB27B689A8107E04D
:104740007B689B899BB223F400539AB27B689A8161
:1047500000BF0C37BD465DF8047B704780B483B062
:1047600000AF78600B467B807B88C3F308039AB266
:104770007B689A8000BF0C37BD465DF8047B7047AC
:1047800080B500AF01214FF48070FFF76FFE00216C
:104790004FF48070FFF76AFE00BF80BD80B485B023
:1047A00000AF786039600023FB600023FB727B68F8
:1047B0005B68FB60FB6823F0407323F48073FB604D
:1047C0003B681B791A023B681B681343FA68134362
:1047D000FB607B68FA685A607B689B68FB60FA68DC
:1047E0004FF2FD73CCF2FF031340FB603B681A6984
:1047F0003B68DB681A433B689B681A433B685B79FC
:104800005B001343FA681343FB607B68FA689A60A5
:104810007B68DB6AFB60FB6823F47003FB603B682A
:104820001B7D013BDAB2FB7A1343FB72FB7A1B055B
:10483000FA681343FB607B68FA68DA6200BF1437DA
:10484000BD465DF8047B704780B483B000AF7860EC
:104850007B6800221A607B6800221A717B68002244
:104860005A717B6800229A607B680022DA607B685C
:1048700000221A617B6801221A7500BF0C37BD4601
:104880005DF8047B704780B485B000AF786000238A
:10489000FB604FF40C53C4F201035B68FB60FA68E1
:1048A00043F2E003CFF6FC731340FB607B681A68A9
:1048B0007B685B681A437B689B681A437B68DB688C
:1048C0001343FA681343FB604FF40C53C4F2010323
:1048D000FA685A6000BF1437BD465DF8047B704724
:1048E00080B483B000AF78600B46FB70FB78002B80
:1048F00006D07B689B6843F001027B689A6005E004
:104900007B689B6823F001027B689A6000BF0C37CC
:10491000BD465DF8047B704780B485B000AF786019
:10492000084611461A460346FB700B46BB701346F9
:104930007B700023FB600023BB60FB78092B23D92D
:104940007B68DB68FB60FB78A3F10A0213465B001F
:104950001344072202FA03F3BB60BB68DB43FA6827
:104960001340FB607978FB78A3F10A0213465B00E1
:10497000134401FA03F3BB60FA68BB681343FB609E
:104980007B68FA68DA601EE07B681B69FB60FA7876
:1049900013465B001344072202FA03F3BB60BB68B3
:1049A000DB43FA681340FB607978FA7813465B00C2
:1049B000134401FA03F3BB60FA68BB681343FB605E
:1049C0007B68FA681A61BB78062B21D87B685B6B21
:1049D000FB60BB785A1E13469B0013441F2202FA49
:1049E00003F3BB60BB68DB43FA681340FB60F978F4
:1049F000BB785A1E13469B00134401FA03F3BB60B5
:104A0000FA68BB681343FB607B68FA685A6347E047
:104A1000BB780C2B21D87B681B6BFB60BB78DA1F43
:104A200013469B0013441F2202FA03F3BB60BB68CA
:104A3000DB43FA681340FB60F978BB78DA1F134652
:104A40009B00134401FA03F3BB60FA68BB6813438D
:104A5000FB607B68FA681A6322E07B68DB6AFB60B4
:104A6000BB78A3F10D0213469B0013441F2202FAE8
:104A700003F3BB60BB68DB43FA681340FB60F97863
:104A8000BB78A3F10D0213469B00134401FA03F314
:104A9000BB60FA68BB681343FB607B68FA68DA6244
:104AA00000BF1437BD465DF8047B704780B483B007
:104AB00000AF78607B689B6843F080427B689A60B7
:104AC00000BF0C37BD465DF8047B704780B483B0EF
:104AD00000AF78607B68DB6C9BB218460C37BD4634
:104AE0005DF8047B704780B485B000AF78600B46FA
:104AF000FB700023FB737B681A68FB781340002B64
:104B000002D00123FB7301E00023FB73FB7B1846FB
:104B10001437BD465DF8047B704780B485B000AFA4
:104B2000786039600023FB817B681B88FB81FB89EF
:104B300003F44153FB813B681A883B685B8813434D
:104B40009AB23B689B8813439AB23B68DB88134355
:104B50009AB23B681B8913439AB23B685B89134343
:104B60009AB23B689B8913439AB23B68DB89134333
:104B70009AB2FB891343FB817B68FA891A807B68B0
:104B80009B8B9BB223F400639AB27B689A833B6849
:104B90001A8A7B681A8200BF1437BD465DF8047B11
:104BA000704780B483B000AF78600B46FB70FB7831
:104BB000002B08D07B681B889BB243F040039AB25D
:104BC0007B681A8007E07B681B889BB223F0400358
:104BD0009AB27B681A8000BF0C37BD465DF8047B33
:104BE000704780B483B000AF78607B689B899BB2CC
:104BF00018460C37BD465DF8047B704780B483B01F
:104C000000AF78600B467B807B687A889A8100BF12
:104C10000C37BD465DF8047B704780B485B000AFAB
:104C200078600B467B800023FB737B681B899AB2FC
:104C30007B8813409BB2002B02D00123FB7301E061
:104C40000023FB73FB7B18461437BD465DF8047BDD
:104C5000704780B483B000AF78600B46FB707B6810
:104C6000FA781A707B6818460C37BD465DF8047BED
:104C7000704780B483B000AF78607B681B781846BB
:104C80000C37BD465DF8047B704780B483B000AF3D
:104C900078600B46FB707B68FA781A707B681B782B
:104CA00018460C37BD465DF8047B704780B483B06E
:104CB00000AF786039603B681A787B681A707B684F
:104CC0001B7818460C37BD465DF8047B704780B4EE
:104CD00083B000AF78600B46FB701346BB707B68F7
:104CE000FA781A707B68BA785A707B6818460C3765
:104CF000BD465DF8047B704780B483B000AF786038
:104D000039603B6893F900207B681A703B6893F91F
:104D100001207B685A707B6818460C37BD465DF8E9
:104D2000047B704780B483B000AF786039607B68E3
:104D300093F90030DAB23B6893F90030DBB21344E8
:104D4000DBB25AB27B681A707B6893F90130DAB231
:104D50003B6893F90130DBB21344DBB25AB27B6893
:104D60005A7000BF0C37BD465DF8047B704780B4B5
:104D700083B000AF786039603B6893F900207B68AE
:104D80001A703B6893F901207B685A707B6818465B
:104D90000C37BD465DF8047B704780B582B000AF2C
:104DA000786039607B683968184600F027FD034653
:104DB00018460837BD4680BD80B582B000AF786028
:104DC0007B680433002200211846FFF780FF7B68D0
:104DD000063300211846FFF73CFF7B689A1D49F215
:104DE000AC63C0F601031B7819461046FFF74DFF70
:104DF0007B6818460837BD4680BD80B582B000AFDD
:104E0000786039607B68043339681846FFF7AFFF74
:104E100000BF0837BD4680BD80B582B000AF786066
:104E200039607B68043339681846FFF77BFF00BFA1
:104E30000837BD4680BD80B586B000AF7860397058
:104E40003B461846FFF715FF03461A4649F2AC6386
:104E5000C0F601031B789A420CBF01230023DBB28A
:104E6000002B0FD007F1080340F64821C2F20001E1
:104E70001846FFF741FF07F1080319467868FFF766
:104E8000CBFF64E03B461846FFF7F3FE03461A46A5
:104E900049F2AF63C0F601031B789A420CBF0123AD
:104EA0000023DBB2002B0FD007F10C0340F6542196
:104EB000C2F200011846FFF71FFF07F10C03194665
:104EC0007868FFF7A9FF42E03B461846FFF7D1FE9E
:104ED00003461A4649F2AE63C0F601031B789A42B4
:104EE0000CBF01230023DBB2002B0FD007F110030E
:104EF00040F65021C2F200011846FFF7FDFE07F10F
:104F0000100319467868FFF787FF20E03B461846F4
:104F1000FFF7AFFE03461A4649F2AD63C0F6010340
:104F20001B789A420CBF01230023DBB2002B0ED06A
:104F300007F1140340F64C21C2F200011846FFF7B6
:104F4000DBFE07F1140319467868FFF765FF00BF21
:104F50001837BD4680BD80B582B000AF786039603B
:104F60003B68043319467868FFF7C6FE786808374F
:104F7000BD4680BD80B483B000AF78607B689B790C
:104F800018460C37BD465DF8047B704780B582B08B
:104F900000AF786039707B6806333A461146184690
:104FA000FFF784FE00BF0837BD4680BD80B586B0E0
:104FB00000AF78603960FDF788FA49F2AC63C0F65B
:104FC00001031B781846FDF7A7F903461A4607F1B7
:104FD0000C0311461846FFF73CFE07F110037968F1
:104FE0001846FFF7B8FF07F10C0207F11003194646
:104FF000386802F000FC40F61323C2F200030022DE
:105000001A708720FCF73AFF024640F64023C2F2AE
:1050100000031B689A42ACBF01230023DBB2002BC4
:1050200002D0FCF797FDECE707F1140340F64821A6
:10503000C2F200011846FFF75FFE07F1140319469C
:105040007868FFF7E9FE40F64023C2F20003002231
:105050001A6000210020FCF773FA00BF1837BD4624
:1050600080BD80B584B000AF7860397040F64023D1
:10507000C2F2000300221A607868FFF77BFF034644
:105080003B7307F10C031846FFF7F3FD03461A467E
:1050900049F2AC63C0F601031B789A420CBF0123AE
:1050A0000023DBB2002B62D03B461846FFF7E1FD40
:1050B00003461A4649F2AC63C0F601031B789A42D4
:1050C0000CBF01230023DBB2002B12D0B420FCF76D
:1050D000D5FE024640F64023C2F200031B689A4206
:1050E000ACBF01230023DBB2002B02D0FCF732FD62
:1050F000ECE73B461846FFF7BCFD03461A4649F26B
:10510000AD63C0F601031B789A420CBF0123002354
:10511000DBB2002B01D0FCF70DFE3B461846FFF733
:10512000A8FD03461A4649F2AF63C0F601031B7897
:105130009A420CBF01230023DBB2002B01D0FCF705
:10514000C1FD3B461846FFF794FD03461A4649F257
:10515000AE63C0F601031B789A420CBF0123002303
:10516000DBB2002B03D0FCF775FDFCF71BFE07F14B
:105170000C031846FFF77DFD03461A4649F2AF635C
:10518000C0F601031B789A420CBF01230023DBB257
:10519000002B62D03B461846FFF76BFD03461A46CC
:1051A00049F2AC63C0F601031B789A420CBF01239D
:1051B0000023DBB2002B01D0FCF7BCFD3B461846B8
:1051C000FFF757FD03461A4649F2AD63C0F60103E7
:1051D0001B789A420CBF01230023DBB2002B03D0C3
:1051E000FCF738FDFCF7DEFD3B461846FFF741FDB6
:1051F00003461A4649F2AF63C0F601031B789A4290
:105200000CBF01230023DBB2002B12D0B420FCF72B
:1052100035FE024640F64023C2F200031B689A4264
:10522000ACBF01230023DBB2002B02D0FCF792FCC1
:10523000ECE73B461846FFF71CFD03461A4649F2C9
:10524000AE63C0F601031B789A420CBF0123002312
:10525000DBB2002B01D0FCF735FD07F10C0318463B
:10526000FFF707FD03461A4649F2AE63C0F6010395
:105270001B789A420CBF01230023DBB2002B62D0C3
:105280003B461846FFF7F5FC03461A4649F2AC6365
:10529000C0F601031B789A420CBF01230023DBB246
:1052A000002B03D0FCF7D6FCFCF77CFD3B461846F0
:1052B000FFF7DFFC03461A4649F2AD63C0F601036F
:1052C0001B789A420CBF01230023DBB2002B01D0D4
:1052D000FCF7F8FC3B461846FFF7CBFC03461A46A2
:1052E00049F2AF63C0F601031B789A420CBF012359
:1052F0000023DBB2002B01D0FCF71CFD3B46184617
:10530000FFF7B7FC03461A4649F2AE63C0F6010345
:105310001B789A420CBF01230023DBB2002B12D072
:10532000B420FCF7ABFD024640F64023C2F2000376
:105330001B689A42ACBF01230023DBB2002B02D0D2
:10534000FCF708FCECE707F10C031846FFF791FCAB
:1053500003461A4649F2AD63C0F601031B789A4230
:105360000CBF01230023DBB2002B62D03B46184662
:10537000FFF77FFC03461A4649F2AC63C0F601030F
:105380001B789A420CBF01230023DBB2002B01D013
:10539000FCF798FC3B461846FFF76BFC03461A46A1
:1053A00049F2AD63C0F601031B789A420CBF01239A
:1053B0000023DBB2002B12D0B420FCF75FFD0246C5
:1053C00040F64023C2F200031B689A42ACBF01239F
:1053D0000023DBB2002B02D0FCF7BCFBECE73B4622
:1053E0001846FFF746FC03461A4649F2AF63C0F67B
:1053F00001031B789A420CBF01230023DBB2002B70
:1054000003D0FCF727FCFCF7CDFC3B461846FFF722
:1054100030FC03461A4649F2AE63C0F601031B781E
:105420009A420CBF01230023DBB2002B01D0FCF712
:1054300081FC00BF1037BD4680BD90B587B000AF7E
:10544000F860B9603B601346FB8000237B823B68B9
:105450001B68002B14D13B681B681946B868FFF71E
:105460009CFC03465B78013B9BB21A4652001344F6
:105470001A461201D31A9B009BB287339BB210E0ED
:105480003B681B681946B868FFF787FC03465B78E2
:105490009BB21A46520013441A461201D31A9B00BB
:1054A0009BB27B823B681B681946B868FFF775FCA6
:1054B00003461B78002B0CBF01230023DBB2002B1B
:1054C00000F0A0807B8A1846FCF7D8FC024640F624
:1054D0004023C2F200031B689A42ACBF01230023A1
:1054E000DBB2002B00F0868140F61223C2F20003EB
:1054F0001B78DBB2012B0CBF01230023DBB2002B96
:1055000001D0FCF71AFE40F61323C2F200031B7809
:10551000DBB2012B0CBF01230023DBB2002B36D002
:105520000020FCF7F9FE40F64423C2F200030022FB
:105530001A8040F61423C2F200031B881A4640F674
:1055400097039A421BDD40F61A23C2F200031B8820
:105550001A4640F697039A4211DD40F61A23C2F22A
:1055600000031A8840F61423C2F200031B88D31AE2
:105570009BB21AB240F64423C2F200031A8040F6EE
:105580001323C2F2000300221A70FCF7DCFF40F67E
:10559000F413C2F200031B78DBB2012B0CBF012312
:1055A0000023DBB2002B8DD0FCF761F8B7F9064081
:1055B00040F64423C2F20003B3F900301A46FB88D8
:1055C00003FB02F31846FAF74DFF46F6F102C8F660
:1055D000E3024FF6B503C3F6E463FAF7A9FF024608
:1055E0000B4610461946FBF77BFA034600EE103ACD
:1055F0002046FCF7ADF840F6F413C2F20003002297
:105600001A705FE73B681B681946B868FFF7C5FB6F
:1056100003461B78022B0CBF01230023DBB2002BB7
:1056200072D00023FB823B681B6801331946B868BF
:10563000FFF7B3FB03461C783B681B681946B86844
:10564000FFF7ABFB03461B789C420CBF01230023F2
:10565000DBB2002B08D03B681B685A1C3B681A6001
:105660004FF65073FB8202E04FF6A873FB8240F6C0
:105670002423C2F200034FF000021A60B7F916307B
:1056800007EE903AB8EEE77A40F62423C2F2000320
:10569000D3ED007AB4EEE77AF1EE10FA2CD840F6AA
:1056A000F413C2F200031B78DBB2012B0CBF012301
:1056B0000023DBB2002BE1D0FBF7D9FFB7F90610CE
:1056C000FB885B4246F2B702CBF20B6282FB03021D
:1056D0001A449211DB17D31A07EE903AF8EEE77AE4
:1056E000B0EE670A0846FCF733F840F6F413C2F24E
:1056F000000300221A70C1E740F62423C2F200031F
:105700004FF000021A6075E03B681B681946B868E4
:10571000FFF743FB03461B78042B0CBF0123002338
:10572000DBB2002B66D00023BB823B681B680133D1
:105730001946B868FFF731FB03461C783B681B68C5
:105740001946B868FFF729FB03461B789C420CBF3B
:1057500001230023DBB2002B05D03B6804333B6000
:10576000B023BB8201E05823BB8240F62423C2F25F
:1057700000034FF000021A60B7F914305B4207EEE5
:10578000903AB8EEE77A40F62423C2F20003D3ED54
:10579000007AB4EEE77AF1EE10FA00DA2AE040F689
:1057A000F413C2F200031B78DBB2012B0CBF012300
:1057B0000023DBB2002BDFD0FBF759FFB7F906104F
:1057C000FB885A0846F2B703CBF20B63A3FB022314
:1057D0005B099BB207EE903AF8EEE77AB0EE670A03
:1057E0000846FBF7B5FF40F6F413C2F200030022AF
:1057F0001A70C1E700BF1C37BD4690BD80B483B0AE
:1058000000AF786039607B681A683B685B001344BE
:1058100018460C37BD465DF8047B70472DE9F04112
:1058200082B000AF78607B680F241E46002C0FDB2F
:1058300033460F259846002D07DB00214046FFF731
:1058400008FA08F10108013DF5E71036013CEDE7E3
:105850007B68012283F800227B68012283F8012201
:105860007B6803F20223002200211846FFF72FFA7B
:10587000786807F0DAFA7B6818460837BD46BDE855
:10588000F08190B585B000AF786039607B68012207
:1058900083F800220023FB60FB680F2B33DC00231E
:1058A000BB60BB680F2B2ADCFB681A01BB68134482
:1058B0007A68D418FB681A01BB6813443A68134429
:1058C0001846FFF7D6F9034619462046FFF7DDF9DB
:1058D0003A68FB681B011A44BB68134403F58073E4
:1058E00019787A68FB681B011A44BB68134403F5F6
:1058F00080730A461A70BB680133BB60D1E7FB684E
:105900000133FB60C8E77B6818461437BD4690BD7D
:1059100080B483B000AF786039603B6818460C37BC
:10592000BD465DF8047B704780B582B000AF7860FB
:105930007B68184600F0DDFC7B6818460837BD46DA
:1059400080BD80B582B000AF786039607B68184652
:1059500000F0CFFC7B683A681146184600F001FD64
:105960007B6818460837BD4680BD80B582B000AF61
:1059700078607B68184600F013FE03461846083727
:10598000BD4680BD80B582B000AF78607B681846A8
:1059900000F0BCFC7B6818460837BD4680BD80B56A
:1059A00084B000AFF860B9601346FB71FB68BA6859
:1059B0001A60FB680433184600F003FEFB681033DE
:1059C000184600F00BFEFB684FF0FF32DA61FB680F
:1059D00020331846FFF7A8FFFB683033184600F065
:1059E0000AFEF86800F005F8FB6818461037BD4657
:1059F00080BD80B582B000AF78607B680433184604
:105A000000F006FE7B683033184600F00FFE7B681E
:105A10004FF0FF32DA6100BF0837BD4680BD80B469
:105A200083B000AF78607B68203318460C37BD46E2
:105A30005DF8047B704780B582B000AF7860396054
:105A40007B683A681A607B6800221A717B680533AC
:105A5000002200211846FFF73AF97B680833184600
:105A600000F0C9FD7B68143300211846FFF7F1F8F8
:105A70007B681833002239681846FFF790FF7B686F
:105A80005433184600F09DFD786801F042FD7B68B4
:105A900018460837BD4680BD80B483B000AF78603B
:105AA0007B68043318460C37BD465DF8047B7047AD
:105AB00080B483B000AF78607B68143318460C372D
:105AC000BD465DF8047B704780B582B000AF78605A
:105AD0007B6818331846FFF7A2FF034618460837BD
:105AE000BD4680BD80B5ADF5956D00AFFCF7DAFD24
:105AF000FDF79EFCFDF73FFAFCF7F9FF4FF400516C
:105B00004FF40060C4F20200FDF7DBFE0346002BF9
